:020000040800F2
:1000000078640020290200086D560008F94F0008A6
:100010004D5600082906000815650008000000007C
:10002000000000000000000000000000D15800089F
:10003000A117000800000000615800087559000869
:10004000430200084302000843020008430200087C
:10005000430200084302000843020008430200086C
:10006000430200084302000843020008430200085C
:10007000430200084302000843020008430200084C
:1000800065140008751400084302000843020008C4
:100090002D0600083D060008430200084302000840
:1000A00043020008695A000843020008430200089E
:1000B000795A0008895A00084302000843020008E0
:1000C00043020008430200084302000843020008FC
:1000D00043020008F56400080565000843020008B3
:1000E00043020008430200084302000843020008DC
:1000F00043020008430200084302000843020008CC
:1001000043020008430200084302000843020008BB
:1001100043020008430200084302000843020008AB
:100120004302000843020008851400084302000847
:100130004302000800000000000000004302000825
:100140004D0600085D06000843020008430200084F
:100150004302000843020008951400084302000807
:10016000430200084302000843020008430200085B
:1001700043020008430200080000000000000000E5
:10018000430200084302000800F002F800F03CF8C7
:100190000AA090E8000C82448344AAF10107DA45E2
:1001A00001D100F031F8AFF2090EBAE80F0013F0F8
:1001B000010F18BFFB1A43F00103184760A80000A5
:1001C00080A80000103A24BF78C878C1FAD8520736
:1001D00024BF30C830C144BF04680C6070470000C1
:1001E0000023002400250026103A28BF78C1FBD840
:1001F000520728BF30C148BF0B6070471FB50AF0D7
:100200008AFB1FBD10B510BD00F054F91146FFF771
:10021000F5FF06F0BFFF00F072F903B4FFF7F2FF3D
:1002200003BC00F075F90000094880470948004701
:10023000FEE7FEE7FEE7FEE7FEE7FEE7FEE7FEE796
:10024000FEE7FEE704480549054A064B70470000F3
:10025000555A000889010008785800207864002069
:10026000786000207860002053EA020C00F069807A
:100270002DE9F04B4FF00006002B1FBFB3FA83F5BA
:1002800003FA05F424FA05F65E4012BF1643B2FAEB
:1002900082F502FA05F4C5F120051EBF22FA05FC1D
:1002A00044EA0C04203556EA044C4FEA144418BFC3
:1002B000641C4FF000084FF00009904271EB030CF2
:1002C00039D3002919BFB1FA81F701FA07F6B0FA5C
:1002D00080F700FA07F6C7F120071EBF20FA07FCD7
:1002E00046EA0C062037B6FBF4FCA7EB0507103FE7
:1002F00007F01F0BCBF120062CFA06F60CFA0BFBCD
:1003000044BFB3460026202FA4BF5E464FF0000B2B
:100310005BEA060C08BF4FF0010B19EB0B0948EB29
:100320000608ABFB027C06FB02CC0BFB03CCC01B1C
:1003300071EB0C01C1E70B46024641464846BDE859
:10034000F08B13B5084318BF4FF0FF300146AFF3F1
:100350000080BDE81C407047032A40F2308010F056
:10036000030C00F0158011F8013BBCF1020F624450
:1003700098BF11F801CB00F8013B38BF11F8013BE1
:10038000A2F1040298BF00F801CB38BF00F8013B8E
:1003900011F0030300F05780083AC0F0088051F8CC
:1003A000043B083A51F804CBA0E80810F5E7121D09
:1003B0005CBF51F8043B40F8043BAFF30080D20728
:1003C00024BF11F8013B11F801CB48BF11F8012BF4
:1003D00024BF00F8013B00F801CB48BF00F8012B17
:1003E000704702F0FF0343EA032242EA024200F0B0
:1003F00002B84FF0000200B51346944696462039E5
:1004000022BFA0E80C50A0E80C50B1F12001BFF4CD
:10041000F7AF090728BFA0E80C5048BF0CC05DF833
:1004200004EB890028BF40F8042B08BF704748BF81
:1004300020F8022B11F0804F18BF00F8012B7047F5
:1004400070477047704710B5203AC0F00B80B1E894
:100450001850A0E81850B1E81850A0E81850203AF9
:10046000BFF4F5AF5FEA027C24BFB1E81850A0E802
:10047000185044BF18C918C0BDE810405FEA827C1C
:1004800024BF51F8043B40F8043B08BF7047D20733
:1004900028BF31F8023B48BF11F8012B28BF20F8D4
:1004A000023B48BF00F8012B70470000004870472E
:1004B000100000207546FFF7F9FFAE4605006946BB
:1004C000534620F00700854618B020B5FFF7BAFE66
:1004D000BDE820404FF000064FF000074FF0000845
:1004E0004FF0000BAC46ACE8C009ACE8C009ACE882
:1004F000C009ACE8C00921F007018D46704710B56E
:100500000446AFF300802046BDE81040FFF785BEEB
:1005100001491820ABBEFEE726000200704700002C
:1005200080B586B00590FFE700208DF81300FFE747
:100530009DF8130040F27001C2F200010978884270
:100540002FDAFFE70020C4F2020002904FF480711E
:100550000191012202F058FEFA20039006F048FEB5
:1005600001990298002202F04FFE039806F040FE27
:100570009DF8130040F27001C2F2000109780139C0
:10058000884207D1FFE740F27001C2F2000100206B
:100590000870FFE7FFE79DF8130001308DF81300A6
:1005A000C6E7012006F024FEBEE7000080B586B055
:1005B0000020C4F2020002904FF4807103910122E6
:1005C000019202F021FEC820009002F01FFC029868
:1005D00003990022049202F017FE009802F016FC24
:1005E000019A0298039902F00FFE3220059002F062
:1005F0000DFC02980399049A02F006FE059802F099
:1006000005FC019A0298039902F0FEFD059802F09C
:10061000FDFB02980399049A02F0F6FD059802F09A
:10062000F5FB06B080BD0000FFE7FEE780B540F6B1
:10063000BC30C2F2000001F0F3FB80BD80B540F693
:10064000BC30C2F2000001F0EBFB80BD80B540F68B
:10065000E430C2F2000001F0E3FB80BD80B540F65B
:10066000E430C2F2000001F0DBFB80BD80B58CB04D
:100670000A9000200390029001900A9800F0F4F88C
:1006800020B1FFE700208DF82F005DE00A98017887
:1006900001EB410100EBC1000069069000200790CA
:1006A0000A98017801EB410100EBC100007B089042
:1006B0000898092803D3FFE708200890FFE70020E7
:1006C0008DF82400069848B9FFE70A98017801EBF5
:1006D000410100EBC1008068049008E00A980178AD
:1006E00001EB410100EBC10080680590FFE70A982B
:1006F000017801EB410100EBC10000F11401089AFF
:1007000002A80090FFF728FE009A0A98406804A902
:1007100001AB01F0FBF820B1FFE700208DF82F00BE
:1007200012E00A99087801304AF6AB22CAF6AA22EA
:10073000A0FB0232D20802EB4202A0EB820008705A
:1007400001208DF82F00FFE79DF82F000CB080BD31
:1007500070B58AB0119D109CDDF83CE0DDF838C022
:10076000129E09950894CDF81CE0CDF818C00593A9
:10077000049203910290029800F082F808B1FFE71A
:1007800047E00798092803D3FFE70820019003E01A
:100790009DF81C000190FFE7019802994A7802EB4E
:1007A000420201EBC2010873059802994A7802EBF4
:1007B000420201EBC2010861059818B9FFE70398EE
:1007C000009002E004980090FFE7009802994A78B0
:1007D00002EB420201EBC20188600298417801EB12
:1007E000410100EBC10202F114001299127BFFF7E4
:1007F000B3FD0299487801304AF6AB22CAF6AA2224
:10080000A0FB0232D20802EB4202A0EB8200487049
:10081000FFE70AB070BD000041F26040C2F2000084
:100820000078C00708B1FFE71DE040F27802C2F28D
:10083000000200205070107040F2A011C2F20001BE
:100840004870087040F6BC30C2F20000506040F6BC
:10085000E430C2F20000486041F26041C2F200019F
:1008600001200870FFE7704781B000900099087878
:100870004978401AB0FA80F0400901B07047000092
:1008800081B0009000980178407801304AF6AB22A0
:10089000CAF6AA22A0FB0232D20802EB4202A0EB67
:1008A0008200401AB0FA80F0400901B070470000A1
:1008B00083B002900191029800788DF803000198AE
:1008C0000078029908709DF803000199087003B040
:1008D0007047000084B08DED020ACDED010A8DED68
:1008E000001A9DED020A9DED011AB4EE410AF1EEE7
:1008F00010FA03DAFFE7019803900FE09DED020A7A
:100900009DED001AB4EE410AF1EE10FA03DDFFE7A7
:100910000098039002E002980390FFE79DED030A20
:1009200004B0704783B08DED010ACDED000A9DED56
:10093000010A9DED001AB4EE410AF1EE10FA03DD52
:10094000FFE70098029015E09DED010A9DED001A69
:10095000B1EE411AB4EE410AF1EE10FA07DAFFE700
:100960009DED000AB1EE400A8DED020A02E0019809
:100970000290FFE79DED020A03B0704781B08DED54
:10098000000A9DED000A9FED031A80EE010A01B0F6
:10099000704700BF0000B44310B584B003900398C3
:1009A000B0F844000399B1F86010401A0399A1F817
:1009B00046000398B0F94600012805DBFFE70398DD
:1009C000B0F94600029005E00398B0F946004042B5
:1009D0000290FFE70298B0F5805F12DDFFE7039811
:1009E000B0F846300398B0F946104FF0FF300029B8
:1009F000C8BF012003998A8800FB1230A1F8460085
:100A0000FFE70398B0F946200399886C1044886486
:100A1000039890ED120AB8EEC00A9FED251A20EE59
:100A2000010A8DED010A0398818800EE101AB8EED4
:100A3000400A8DED000A00F033FF9DED001AB0EE84
:100A4000402A9DED010A21EE021A80EE010A039868
:100A500080ED0E0A03984078C00730B1FFE7039895
:100A6000806C0399C1F88C00FFE7039890F86F0041
:100A7000C00740B1FFE7039800F0B6FB03990020E0
:100A800081F86F00FFE70399486B8A6BCB6BD1F855
:100A900040C0D1F844E08C6C4C66C1F860E0C1F80D
:100AA0005CC08B654A650865C86C886604B010BD7B
:100AB0000000B44380B58AB00990002000900890EF
:100AC0000790069005900490039002908DF807001F
:100AD00005900690082107918DF82000099800786C
:100AE00004280CD8FFE74FF40070039009980178B0
:100AF0006FF0010000EB41008DF807000BE040F2C1
:100B0000FF100390099801786FF0090000EB410095
:100B10008DF80700FFE70998018B9DF8072040F248
:100B20009860C2F2000081529DF807100844411CF1
:100B3000FFF7BEFE09980078042805D0FFE7099862
:100B4000007808280BD1FFE700F0A8F840F298627F
:100B5000C2F2000203A902AB00F0D8FEFFE70AB020
:100B600080BD000080B584B000200390FFE70398AB
:100B7000032800F29180FFE7039840F2C822C2F2F6
:100B80000002F42100FB01204078C007002869D052
:100B9000FFE7039840F2C822C2F200020092F4215B
:100BA000019100FB012000F0A1FB009A019903983C
:100BB00000FB0120C07801460291042850D8029918
:100BC000DFE801F003131E293400039840F2C82225
:100BD000C2F20002F42100FB0123002018830398D5
:100BE00000FB0120FFF766FF52E0039840F2C822A5
:100BF000C2F20002F42100FB012000F005FB30E00E
:100C0000039840F2C822C2F20002F42100FB012046
:100C100000F098F925E0039840F2C822C2F20002E1
:100C2000F42100FB012000F08FFB1AE0039840F252
:100C3000C822C2F20002F42100FB0120B0F9180022
:100C400000EE100AB8EEC00A039800FB0120B0F9CC
:100C5000140001EE100AF8EEC10AFFF763FE00E08F
:100C6000FFE70AE0039840F2C822C2F20002F42132
:100C700000FB012100200883FFE7039840F2C8220F
:100C8000C2F20002F42100FB0120FFF713FFFFE78F
:100C90000398013003906AE704B080BD40F6BC3091
:100CA000C2F2000070470000F0B5A1B040F2FF10A2
:100CB0001F904FF07E511D910020C4F210201E9015
:100CC00041F6FF70ADF8700041F29412ADF880204B
:100CD0004FF400721A9218914AF22C01C4F2991141
:100CE0001991ADF85C0042F21070ADF86C00012172
:100CF0008DF84310002006908DF858000022C4F2B1
:100D0000873211920022CCF2873212928DF8410084
:100D10008DF842104FF4D77214928DF840004FF4C2
:100D2000C872ADF84C2040F6B832ADF856203222E9
:100D3000ADF854208DF83F108DF83D008DF83E0041
:100D40008DF83C000D90ADF83800ADF83A000B90EE
:100D5000ADF83000ADF832000A90FFE70A9803289A
:100D600062D8FFE70A9840F2C823C2F20003039357
:100D7000F422049200FB02310020059048700A9989
:100D800001FB023188700A9901FB023C0F99CCF8F3
:100D90006C100A9901FB023C1099DDF844E0129CAA
:100DA000139D149E159FCCF88470CCF88060CCF80D
:100DB0007C50CCF87840CCF874E0CCF870101699E0
:100DC000CCF888100A9901FB023C0D99DDF838E057
:100DD000CCF890E0CCF88C100A9901FB023C0B99FE
:100DE000DDF830E0CCF898E0CCF894100A9901FBDB
:100DF000023108830A9901FB0231C8610A9901FB9B
:100E0000023108840A9901FB0231C8620A9901FB88
:100E1000023188640A9901FB0231A1F86000FFE702
:100E20000A9801300A9099E700200990FFE7099895
:100E3000032820D8FFE7099A501CF42102FB01F394
:100E400040F2C822C2F20002D054099800FB0121EE
:100E50001C981D9A1E9BDDF87CC0DDF880E0C1F86F
:100E600014E0C1F810C0CB608A604860FFE70998C1
:100E700001300990DBE700200890FFE70898002880
:100E800024D2FFE7089B581D40F2C822C2F200029C
:100E9000F42103FB012383F8D003089800FB012110
:100EA0001798189A199BDDF868C0DDF86CE0C1F856
:100EB000E4E3C1F8E0C3C1F8DC33C1F8D823C1F8DA
:100EC000D403FFE7089801300890D7E70020079087
:100ED000FFE70798032828D8FFE7079840F2C822C1
:100EE000C2F200020192F421029100FB01209C3029
:100EF0009FED0F0ADFED0F0A9FED0F1A002104F09E
:100F000079FC019A0299079800FB0120C830B1EEE4
:100F1000060ADFED0A0A9FED0A1A012104F06AFCB5
:100F2000FFE7079801300790D3E721B0F0BD00BF7D
:100F3000295C8F3D6F12033A000000009A99993E98
:100F40000AD7233C80B586B00590059890F87100CB
:100F5000C00770B1FFE7059890ED070A059890ED7E
:100F60001D1AD0ED1E0AFFF7B5FC059880ED070AA3
:100F7000FFE7059890ED070A8DED040A059800F04B
:100F80008FFCB0EE401A9DED040A20EE010A059890
:100F9000818801EE101AB8EE411A20EE010A9FED89
:100FA000411A80EE010ABDEEC00A80ED0B0A0598D9
:100FB00090ED0B0AB8EEC00A059880ED2A0A059854
:100FC00090ED120AB8EEC00A059880ED2B0A05983C
:100FD0009C3004F083FB059880ED350A059890F865
:100FE0007200C007E0B1FFE7059890ED350A8DED7E
:100FF000030A059890ED200AB8EEC00A8DED020AAA
:1010000000F04EFC9DED021AB0EE402A9DED030A61
:1010100061EE020AFFF786FC059880ED350AFFE7CE
:101020000598B0F93C0000EE100AB8EEC00A8DED4C
:10103000010A059800F034FCB0EE401A9DED010A5B
:1010400020EE010A059880ED360A0598C83004F0B4
:1010500045FBB0EE401A0599B1F9180000EE100AF0
:10106000B8EEC00A30EE010ABDEEC00A10EE100A5A
:1010700008830598B0F9180000EE100AB8EEC00A0F
:101080000598B0F9140001EE100AF8EEC10AFFF756
:1010900049FCBDEEC00A10EE100A0599088306B09F
:1010A00080BD00BF0000B443B0B58CB0129CDDF829
:1010B00044E0DDF840C0139D0B94CDF828E0CDF856
:1010C00024C00893079206910590079868B9FFE736
:1010D000089850B9FFE70598B0F5007F05D9FFE7FC
:1010E0000598B0F5027F01D9FFE777E00598A0F5F4
:1010F00000708DF813009DF81300052801D3FFE759
:101100006CE09DF8130040F2C822C2F20002F42104
:1011100010FB0120F438039013980178407840EADE
:1011200001200399A1F8440013988178C07840EA1F
:101130000120ADF80A0013980179407940EA0120B6
:10114000039988860398007806F01EF8A0B1FFE79F
:1011500013988079039981F84C000398B0F9340012
:1011600000EE100AB8EEC00A9FED1E1A20EE010A2A
:10117000039880ED100A12E00398B0F9340000EEF5
:10118000100AB8EEC00A9FED161A80EE010AB2EE00
:10119000041A20EE010A039880ED100AFFE7BDF95A
:1011A0000A0000EE100AB8EEC00A8DED010A03989D
:1011B00000F076FBB0EE401A9DED010A80EE010AC8
:1011C000BDEEC00A10EE100A03998887039900202B
:1011D000C1F894000398FFF7DFFBFFE70CB0B0BD48
:1011E00000401C46E5FF9F3A81B000900099002026
:1011F00081F86F0000998863009988640099C1F8AC
:101200008C0001B07047000080B584B00390039853
:1012100090F87000C00798B1FFE7039890ED350A89
:101220000398B0F97C0001EE100AF8EEC10AFFF74E
:1012300079FBBDEEC00A10EE100A03990884FFE79F
:101240000398B0F9200000EE100AB8EEC00A8DED48
:10125000010A039800F024FBB0EE401A9DED010A4C
:1012600020EE010A039880ED350A0398B0F93C009E
:1012700000EE100AB8EEC00A8DED020A039800F0E5
:101280000FFBB0EE401A9DED020A20EE010A039812
:1012900080ED360A0398C83004F020FAB0EE401A08
:1012A0000399B1F9180000EE100AB8EEC00A30EE4A
:1012B000010ABDEEC00A10EE100A08830398B0F9C7
:1012C000180000EE100AB8EEC00A0398B0F9140036
:1012D00001EE100AF8EEC10AFFF724FBBDEEC00ACA
:1012E00010EE100A0399088304B080BD80B582B067
:1012F0000190019880780199C978884221D0FFE750
:10130000019880780199C8700199002000900883A5
:10131000019908840198806B0199C86101989C30FB
:1013200004F08AFA0198C83004F086FA009801990E
:1013300081F86C00019981F86D00019981F86E00C7
:10134000FFE702B080BD000080B584B00390039831
:10135000B0F9841000EE101AB8EEC00A8DED010A43
:1013600000F09EFAB0EE401A9DED010A20EE010A4F
:10137000039880ED350A0398B0F93C0000EE100A9E
:10138000B8EEC00A8DED020A039800F089FAB0EEBB
:10139000401A9DED020A20EE010A039880ED360AFC
:1013A0000398C83004F09AF9B0EE401A0399B1F9E5
:1013B000180000EE100AB8EEC00A30EE010ABDEEC9
:1013C000C00A10EE100A08830398B0F9180000EE66
:1013D000100AB8EEC00A0398B0F9860001EE100AB0
:1013E000F8EEC10AFFF79EFABDEEC00A10EE100A31
:1013F000039908830398B0F94600012805DBFFE74D
:101400000398B0F94600009005E00398B0F9460053
:1014100040420090FFE700980E2820DCFFE7039A87
:10142000B2F89000411CA2F89010652816D3FFE78F
:1014300003990020A1F89000039A012182F86C1012
:101440000399487003989C3004F0F6F90398C8306B
:1014500004F0F2F90398FFF7C7FEFFE7FFE704B0D7
:1014600080BD000080B540F6CC40C2F2000001F023
:1014700023FA80BD80B540F62C50C2F2000001F086
:101480001BFA80BD80B540F60C40C2F2000001F0AE
:1014900013FA80BD80B540F66C40C2F2000001F046
:1014A0000BFA80BD82B001900198007810384AF69E
:1014B000AB21CAF6AA21A0FB0110000900900099F7
:1014C0004AF66C10C0F60000405C0199C8650098AF
:1014D000042807D3FFE701990868042262F3090092
:1014E000886506E00199086840F2FF3290438865FC
:1014F000FFE70198806D02B07047000086B005904C
:1015000000208DF813000598806A03900598806983
:1015100010BBFFE70398029003281BD80299DFE86D
:1015200001F0020D0218059890F82F00C00720B1B5
:10153000FFE701208DF81300FFE70CE00598C06A73
:10154000B0F1C07F04D1FFE701208DF81300FFE761
:1015500001E000E0FFE745E005988069B0F5005F35
:1015600025D1FFE70398019003281ED80199DFE8F1
:1015700001F00206021101208DF8130016E0059813
:1015800090F82F00C00720B1FFE701208DF813006D
:10159000FFE70BE00598C06AB0F1C07F04D1FFE718
:1015A00001208DF81300FFE700E0FFE719E0039842
:1015B0000090032804D3FFE70098032804D00EE02E
:1015C00001208DF813000BE0059890F82F00C0075C
:1015D00020B1FFE701208DF81300FFE700E0FFE7EF
:1015E000FFE7FFE79DF8130006B0704784B0039053
:1015F00002910192009303980168086820F480200A
:10160000086000980399096848600398806840283A
:1016100009D1FFE701980399096888600298039946
:101620000968C86008E00298039909688860019811
:1016300003990968C860FFE704B0704780B582B0BD
:101640008DF8060040F2B060C2F2000090F806018A
:10165000012871D1FFE79DF8061040F2B060C2F298
:10166000000080F8011190F801015A2856D1FFE7D7
:1016700000208DF805000090FFE7009840F2B0616F
:10168000C2F2000191F802110139884210DAFFE735
:10169000009940F2B060C2F20000415C9DF8050084
:1016A00008448DF80500FFE7009801300090E4E75A
:1016B00040F2B061C2F20001002081F8060191F809
:1016C0000201084410F8010C9DF80510884224D14D
:1016D000FFE740F2B060C2F2000090F80201232858
:1016E00013D1FFE740F2B870C2F2000000F05AF8E0
:1016F00050B9FFE740F2B061C2F20001002081F86A
:1017000002018DF8070046E0FFE740F2B061C2F247
:101710000001002081F80201FFE70CE09DF80600BF
:1017200040F2B061C2F2000191F80221531C81F82D
:1017300002318854FFE715E09DF8061040F2B060D2
:10174000C2F2000080F8001190F80001A52808D12D
:10175000FFE740F2B061C2F20001012081F806010A
:10176000FFE7FFE740F2B060C2F2000090F802012C
:1017700080280CDBFFE740F2B061C2F200010020DC
:1017800081F8060181F802018DF8070003E00120CD
:101790008DF80700FFE79DF8070002B080BD00004C
:1017A0007047000086B0049000208DF80F008DF87F
:1017B0000E000290FFE7029811281CDCFFE7029858
:1017C000C11700EB5170C11040F2B060C2F20000CE
:1017D000405C9DF80E104A1C8DF80E2001F00701A8
:1017E000C84000F001000499029A8854FFE702986B
:1017F00001300290DFE703208DF80F0000208DF804
:101800000700FFE79DF80700022816DCFFE79DF8B8
:101810000F10481C8DF80F0040F2B060C2F20000BB
:10182000405C04999DF8072011448874FFE79DF8F7
:10183000070001308DF80700E4E700200090FFE783
:101840000098062816DCFFE70498009900EB810158
:101850009DF80F2040F2B060C2F20000805888610D
:101860009DF80F0004308DF80F00FFE7009801305D
:101870000090E5E79DF80F00222804D0FFE7002044
:101880008DF8170003E001208DF81700FFE79DF8A1
:10189000170006B07047000072B6FFE7FEE70000D1
:1018A00081B00090009890ED020A90ED031A20EEAE
:1018B000010A01B07047000084B0029001910298C3
:1018C00090F820008DF803009DF80300012805D052
:1018D000FFE79DF8030002280AD1FFE7019A02986A
:1018E000016848691043486100208DF80F0008E046
:1018F0000299486A40F48020486201208DF80F0068
:10190000FFE79DF80F0004B07047000088B0069014
:10191000059104920393069890F820008DF8070033
:1019200006980068806800900598806808B9FFE70D
:1019300000E0FFE79DF80700012806D0FFE79DF8CB
:101940000700022840F08080FFE79DF80300400771
:1019500000280CD4FFE79DF803000007002806D4F8
:10196000FFE79DF80300C006002864D5FFE7009854
:10197000C0F3016002900299012088400399086039
:101980000598806868B9FFE705980168C06840EA73
:10199000415006990968029A01EB0211C1F88001D1
:1019A0000EE005994A688868C96840EAC2000843A1
:1019B00006990968029A01EB0211C1F88001FFE75C
:1019C0000598006906990968029A01EB0211C1F8AD
:1019D00084010598007D01280CD1FFE70698006876
:1019E000029900EB0111D1F8840140F48070C1F834
:1019F0008401FFE70498406806990968029A01EBA0
:101A00000211C1F88C010498006806990968029ACD
:101A100001EB0211C1F8880106980068029900EBF9
:101A20000111D1F8800140F00100C1F880010020CF
:101A30008DF81F0011E00699486A40F400104862D2
:101A400001208DF81F0008E00699486A40F48020C4
:101A5000486201208DF81F00FFE79DF81F0008B0C5
:101A60007047000086B004900391049890F820001D
:101A70008DF803009DF80300012806D0FFE79DF8CC
:101A80000300022840F0B080FFE746F20040C4F2B5
:101A9000000001900199D1F8000240F00100C1F866
:101AA00000020199D1F8000220F47C50C1F8000234
:101AB0000398426A0199D1F8000240EA0220C1F875
:101AC00000020398406900F01F0101208840029045
:101AD000029A0199D1F81C029043C1F81C020398A4
:101AE000C069F0B9FFE7029A0199D1F80C0290435E
:101AF000C1F80C02039A9088D168526940EA01400B
:101B0000019901EBC201C1F84002039A1088916863
:101B1000526940EA0140019901EBC201C1F8440257
:101B2000FFE70398C06901281ED1FFE7029A0199D7
:101B3000D1F80C021043C1F80C02039A9088116886
:101B4000526940EA0140019901EBC201C1F840022B
:101B5000039A90899168526940EA0140019901EB2A
:101B6000C201C1F84402FFE70398806940B9FFE76A
:101B7000029A0199D1F804029043C1F8040207E0E7
:101B8000029A0199D1F804021043C1F80402FFE758
:101B90000398006940B9FFE7029A0199D1F814024D
:101BA0009043C1F8140207E0029A0199D1F8140297
:101BB0001043C1F81402FFE70398006A012808D116
:101BC000FFE7029A0199D1F81C021043C1F81C02E8
:101BD000FFE70199D1F8000220F00100C1F80002EE
:101BE00000208DF8170008E00499486A40F480202E
:101BF000486201208DF81700FFE79DF8170006B036
:101C00007047000081B0009001B0704786B004902A
:101C1000039102920193049890F820008DF803003C
:101C20009DF80300012806D0FFE79DF80300022875
:101C300040F0E880FFE7039880B9FFE70498006868
:101C4000C068800748B9FFE70499486A40F400106B
:101C5000486201208DF81700DDE00FE0049800686D
:101C60000069800748B9FFE70499486A40F400100A
:101C7000486201208DF81700CDE0FFE70498006866
:101C8000039900EB0110D0F8B00100F004000299B4
:101C900088600298806858B9FFE704980068039943
:101CA00000EB0110D0F8B001400D029908600AE085
:101CB00004980068039900EB0110D0F8B001C00847
:101CC00002994860FFE704980068039900EB01104F
:101CD000D0F8B00100F002000299C86004980068D2
:101CE000039900EB0110D0F8B40100F00F000828B0
:101CF00004D3FFE70299082008610BE0049800680C
:101D0000039900EB0110D0F8B40100F00F00029924
:101D10000861FFE704980068039900EB0110D0F810
:101D2000B40180B2000A029988610498006803999E
:101D300000EB0110D0F8B401000C0299486104983E
:101D40000068039900EB0110D0F8B8010199087000
:101D500004980068039900EB0110D0F8B801000A5C
:101D60000199487004980068039900EB0110D0F8BD
:101D7000B801000C0199887004980068039900EB81
:101D80000110D0F8B801000E0199C87004980068DD
:101D9000039900EB0110D0F8BC0101990871049877
:101DA0000068039900EB0110D0F8BC01000A01990A
:101DB000487104980068039900EB0110D0F8BC0149
:101DC000000C0199887104980068039900EB0110D8
:101DD000D0F8BC01000E0199C871039838B9FFE72B
:101DE00004980168C86840F02000C86006E00498C4
:101DF0000168086940F020000861FFE700208DF8C5
:101E0000170008E00499486A40F4802048620120E5
:101E10008DF81700FFE79DF8170006B07047000027
:101E200080B58AB009900020089009980068406940
:101E300007900998006840680690099800688068D3
:101E4000059009980068C0680490099800680069C6
:101E5000039009980068806902909DF81C00C007F3
:101E6000002800F09480FFE79DF81400C00758B3E5
:101E7000FFE709980168012088609DF81400800739
:101E8000002804D5FFE7099800F066FC1BE09DF8E8
:101E900014004007002805D5FFE7089840F40060CB
:101EA00008900FE09DF814000007002805D5FFE713
:101EB000089840F48050089003E0099800F048FC2E
:101EC000FFE7FFE7FFE7FFE79DF81500C00760B3F6
:101ED000FFE7099801684FF4807088609DF815004D
:101EE0008007002804D5FFE7099800F03DFC1BE0BF
:101EF0009DF815004007002805D5FFE7089840F435
:101F0000005008900FE09DF815000007002805D547
:101F1000FFE7089840F48040089003E0099800F03B
:101F20001FFCFFE7FFE7FFE7FFE79DF81600C0078C
:101F300060B3FFE7099801684FF4803088609DF82E
:101F400016008007002804D5FFE7099800F014FC6C
:101F50001BE09DF816004007002805D5FFE708980C
:101F600040F4004008900FE09DF81600000700289C
:101F700005D5FFE7089840F48030089003E0099801
:101F800000F0F6FBFFE7FFE7FFE7FFE7FFE79DF85D
:101F90001C000007002810D5FFE79DF81000C006C0
:101FA000002809D5FFE7089840F4007008900998C8
:101FB00001681020C860FFE7FFE79DF81C0040079C
:101FC00000280FD5FFE79DF810000007002808D56E
:101FD000FFE7099801680820C860099800F0E2FA54
:101FE000FFE7FFE79DF81C00800700280BD5FFE7FF
:101FF00009980068C068800720B1FFE7099800F0E1
:10200000D5FAFFE7FFE79DF81C004006002810D531
:10201000FFE79DF80C00C006002809D5FFE70898E7
:1020200040F4806008900998016810200861FFE77B
:10203000FFE79DF81C00800600280FD5FFE79DF8FC
:102040000C000007002808D5FFE709980168082060
:102050000861099800F0EAFAFFE7FFE79DF81C0025
:10206000C00600280BD5FFE70998006800698007C3
:1020700020B1FFE7099800F0DDFAFFE7FFE79DF8E0
:102080001E00800700280FD5FFE79DF81800C00646
:10209000002808D5FFE709980168102048600998D2
:1020A00000F00CFBFFE7FFE79DF81E00C00778B1CA
:1020B000FFE79DF818000007002808D5FFE70998FA
:1020C000016808204860099800F05AFBFFE7FFE725
:1020D0009DF81D000006002840F18D80FFE79DF867
:1020E00018004007002840F18180FFE79DF81D009F
:1020F000C00750B1FFE79DF80800C00728B1FFE70F
:10210000089840F001000890FFE79DF81D00800747
:1021100000280BD5FFE79DF808008007002805D5AB
:10212000FFE7089840F002000890FFE79DF81D00C7
:10213000400700280BD5FFE79DF80800400700285E
:1021400005D5FFE7089840F004000890FFE79DF8E8
:102150001D000007002848D5FFE79DF8080010F093
:10216000700F42D0FFE7029800F070000146019125
:10217000102814D0FFE70198202815D0FFE7019818
:10218000302816D0FFE70198402817D0FFE70198C4
:10219000502818D0FFE70198602819D01DE0089852
:1021A00040F00800089019E0089840F010000890EE
:1021B00014E0089840F0200008900FE0089840F0E4
:1021C000400008900AE0089840F08000089005E080
:1021D000089840F48070089000E0FFE709980168D3
:1021E000886920F070008861FFE7FFE709980168BF
:1021F00004204860FFE7089848B1FFE7089A09996A
:10220000486A104348620998FFF7FCFCFFE70AB0F0
:1022100080BD000080B584B00290029820B9FFE72D
:1022200001208DF80F00E0E0029890F8200020B91E
:10223000FFE7029800F0DEF8FFE7029801680868FF
:1022400040F00100086000F0F7FF0190FFE70298FE
:1022500000684068C007A8B9FFE700F0EDFF0199EA
:10226000401A0B280DD3FFE70299486A40F400306A
:1022700048620299052081F8200001208DF80F00A6
:10228000B3E0E4E702980168086820F00200086003
:1022900000F0D2FF0190FFE70298006840688007D5
:1022A000002815D5FFE700F0C7FF0199401A0B2859
:1022B0000DD3FFE70299486A40F400304862029962
:1022C000052081F8200001208DF80F008DE0E3E764
:1022D0000298007E012807D1FFE70298016808688C
:1022E00040F08000086006E002980168086820F06D
:1022F00080000860FFE70298407E012807D1FFE7D1
:1023000002980168086840F04000086006E0029802
:102310000168086820F040000860FFE70298807EAE
:10232000012807D1FFE702980168086840F0200003
:10233000086006E002980168086820F02000086044
:10234000FFE70298C07E012807D1FFE702980168E5
:10235000086820F01000086006E00298016808682C
:1023600040F010000860FFE70298007F012807D1C5
:10237000FFE702980168086840F00800086006E07E
:1023800002980168086820F008000860FFE70298DA
:10239000407F012807D1FFE702980168086840F0F4
:1023A0000400086006E002980168086820F0040054
:1023B0000860FFE7029B19685A689868D3F80CC058
:1023C00040EA0C00D3F810C040EA0C005B691843E7
:1023D000013A1043C861029900204862029A012123
:1023E00082F820108DF80F00FFE79DF80F0004B071
:1023F00080BD000080B594B0139000201290119021
:1024000010900F900E901398006846F20041C4F2AD
:102410000001884254D1FFE740F2A460C2F20000FC
:102420000168013101600068012812D1FFE7FFE770
:1024300000200D9043F64000C4F20200016841F014
:1024400000710160006800F000700D900D98FFE7CA
:10245000FFE7FFE700200C9043F63000C4F20200D3
:10246000016841F001010160006800F001000C907A
:102470000C98FFE74FF4C0500E9002200F90002000
:102480000790109003201190092012900020C4F2B0
:1024900002000EA900F0DCFC079A1420059005212B
:1024A000069100F09DFF059800F090FF0699079AAD
:1024B0001520089000F094FF089800F087FF6EE068
:1024C0001398006846F60001C4F20001884265D105
:1024D000FFE7FFE700200B9043F64000C4F2020044
:1024E000016841F080610160006800F080600B903D
:1024F0000B98FFE740F2A460C2F2000001680131CE
:1025000001600068012812D1FFE7FFE700200A9070
:1025100043F64000C4F20200016841F0007101601E
:10252000006800F000700A900A98FFE7FFE7FFE7F5
:102530000020099043F63000C4F20200016841F027
:1025400002010160006800F0020009900998FFE7AD
:1025500060200E9002200F90002003901090032026
:1025600011900920129040F20040C4F202000EA91E
:1025700000F06EFC039A402001900521029100F0CA
:102580002FFF019800F022FF0299039A4120049046
:1025900000F026FF049800F019FFFFE7FFE714B0F2
:1025A00080BD000081B0009001B0704770B58EB062
:1025B0000D900D98006846F20041C4F20001884277
:1025C0001ED1FFE70D98002106AA04ABFFF71EFB02
:1025D000A8B9FFE706980799089A099BDDF828C073
:1025E0000B9C0C9DEE4604AECEF80C60CEF8085065
:1025F000CEF80440CEF800C0FEF756FDFFE713E02A
:102600000D98006846F60001C4F2000188420AD124
:10261000FFE70D98002106AA04ABFFF7F7FA08B907
:10262000FFE7FFE7FFE7FFE70EB070BD81B0009066
:1026300001B0704770B590B00F900F98006846F2E7
:102640000041C4F2000188420AD1FFE70F9801213E
:1026500008AA06ABFFF7DAFA08B9FFE7FFE72AE0B6
:102660000F98006846F60001C4F20001884221D1AB
:10267000FFE70F98012108AA06ABFFF7C7FAC0B918
:10268000FFE7089809990A9A0B9BDDF830C00D9C6A
:102690000E9DEE460126CEF8106006AECEF80C6018
:1026A000CEF80850CEF80440CEF800C004F01AF975
:1026B000FFE7FFE7FFE710B070BD000081B00090BA
:1026C00001B0704780B584B00290029890F8200065
:1026D00001282FD1FFE70299022081F820000298FB
:1026E0000168086820F00100086000F0A5FD019075
:1026F000FFE7029800684068C007A8B1FFE700F054
:102700009BFD0199401A0B280DD3FFE70299486AF7
:1027100040F4003048620299052081F82000012031
:102720008DF80F000FE0E4E70299002048628DF871
:102730000F0008E00299486A40F400204862012036
:102740008DF80F00FFE79DF80F0004B080BD00007A
:1027500081B0009001B0704781B0009001B0704727
:1027600081B0009001B0704781B0009001B0704717
:1027700081B0009001B0704781B0009001B0704707
:1027800081B0009001B0704780B584B0029002988B
:10279000806D019000F050FD0090029890F8350097
:1027A00002280DD0FFE7029980204865FFE70299D3
:1027B000002081F83400FFE701208DF80F0055E07C
:1027C00002980168086820F0160008600298016805
:1027D000486920F0800048610298006C20B9FFE74A
:1027E0000298806C38B1FFE702980168086820F011
:1027F00008000860FFE702980168086820F00100FF
:102800000860FFE7029800680068C007C8B1FFE7EA
:1028100000F012FD0099401A062811D3FFE7029933
:10282000202048650299032081F83500FFE70299CE
:10283000002081F83400FFE703208DF80F0015E039
:10284000E0E70298C16D3F208840019988600299B5
:10285000012081F83500FFE70299002081F834005B
:10286000FFE7FFE700208DF80F00FFE79DF80F005E
:1028700004B080BD82B00090009890F83500022826
:1028800007D0FFE700998020486501208DF80700F8
:102890000EE00099052081F835000098016808686D
:1028A00020F001000860FFE700208DF80700FFE737
:1028B0009DF8070002B0704780B586B005900020F3
:1028C000039040F20000C2F20000006848F2B51127
:1028D000C1F64E31A0FB0110800A02900598806D70
:1028E000019001980068049004980599C96DC8404A
:1028F000000700281AD5FFE7059800680068400720
:10290000002812D5FFE705980168086820F0040048
:1029100008600598C16D0820884001998860059974
:10292000486D40F001004865FFE7FFE7049805990E
:10293000C96DC840C007A0B1FFE7059800684069AD
:10294000000600280CD5FFE70598C16D01208840DE
:10295000019988600599486D40F002004865FFE7DD
:10296000FFE704980599C96DC8404007002814D5B1
:10297000FFE7059800680068800700280CD5FFE78E
:102980000598C16D04208840019988600599486DBB
:1029900040F004004865FFE7FFE704980599C96D1A
:1029A000C840C006002847D5FFE7059800680068C2
:1029B000000700283FD5FFE70598C16D102088402B
:1029C00001998860059800680068400300281AD5BE
:1029D000FFE70598006800680003002809D4FFE7B6
:1029E0000598006C20B1FFE70598016C8847FFE768
:1029F00008E00598806C20B1FFE70598816C884756
:102A0000FFE7FFE716E0059800680068C0050028AA
:102A100007D4FFE705980168086820F008000860FF
:102A2000FFE70598006C20B1FFE70598016C884727
:102A3000FFE7FFE7FFE7FFE704980599C96DC84086
:102A40008006002840F18D80FFE705980068006847
:102A5000C006002840F18480FFE70598C16D202062
:102A6000884001998860059890F83500052834D190
:102A7000FFE705980168086820F0160008600598CF
:102A80000168486920F0800048610598006C20B911
:102A9000FFE70598806C38B1FFE705980168086882
:102AA00020F008000860FFE70598C16D3F208840CE
:102AB000019988600599012081F83500FFE70599A3
:102AC000002081F83400FFE70598006D20B1FFE792
:102AD0000598016D8847FFE77BE00598006800686E
:102AE000400300281AD5FFE7059800680068000336
:102AF000002809D4FFE70598406C20B1FFE705984E
:102B0000416C8847FFE708E00598C06B20B1FFE7FC
:102B10000598C16B8847FFE7FFE720E0059800684C
:102B20000068C005002811D4FFE70598016808680F
:102B300020F0100008600599012081F83500FFE7BA
:102B40000599002081F83400FFE7FFE70598C06B86
:102B500020B1FFE70598C16B8847FFE7FFE7FFE774
:102B6000FFE70598406DA0B3FFE70598406DC007EB
:102B700030B3FFE70599052081F835000598016815
:102B8000086820F001000860FFE703980130039017
:102B90000299884201D9FFE707E0FFE7059800683E
:102BA0000068C0070028F0D1FFE70599012081F8EF
:102BB0003500FFE70599002081F83400FFE7FFE7C3
:102BC0000598C06C20B1FFE70598C16C8847FFE706
:102BD000FFE706B080BD000080B586B004900020FD
:102BE000039000F029FB0290049820B9FFE7012030
:102BF0008DF81700A3E00498406A08B1FFE7FFE7EB
:102C00000499022081F83500FFE70499002081F83B
:102C10003400FFE704980168086820F001000860AC
:102C2000FFE7049800680068C00790B1FFE700F074
:102C300003FB0299401A06280AD3FFE704992020D3
:102C400048650499032081F835008DF8170076E077
:102C5000E7E70498006800680390039848F23F0192
:102C6000CFF2100108400390049900914868D1F810
:102C700008C0CB680A6940EA0C00184310434A694F
:102C800010438A691043CA691043096A01430398D3
:102C9000084303900498406A042808D1FFE7049988
:102CA000C86A096B0143039808430390FFE7039840
:102CB00004990968086004980068406903900398C3
:102CC00020F0070003900498416A0398084303909A
:102CD0000498406A04281AD1FFE70498816A03988F
:102CE000084303900498C06A80B1FFE70498FEF798
:102CF00005FC50B1FFE70499402048650499012084
:102D000081F835008DF8170019E0FFE7FFE7039819
:102D10000499096848610498FEF7C4FB019004987F
:102D2000C16D3F2088400199886004990020486562
:102D3000049A012182F835108DF81700FFE79DF8FD
:102D4000170006B080BD000080B588B006900591E0
:102D50000492039300208DF80B000698806D01907B
:102D6000FFE7069890F83400012804D1FFE702201D
:102D70008DF81F0045E00699012081F83400FFE737
:102D8000FFE7069890F8350001282BD1FFE7069958
:102D9000022081F8350006990020486506980599BB
:102DA000049A039BFEF722FC0698C16D3F208840E1
:102DB0000199886006980168086840F0160008606C
:102DC0000698006C38B1FFE706980168086840F083
:102DD00008000860FFE706980168086840F00100F5
:102DE000086009E0FFE70699002081F83400FFE75A
:102DF00002208DF80B00FFE79DF80B008DF81F00F7
:102E0000FFE79DF81F0008B080BD000080B584B0CA
:102E1000039000F011FA029003980190019801309C
:102E200048B1FFE740F20400C2F2000001780198C7
:102E300008440190FFE7FFE700F0FEF90299401A0D
:102E40000199884201D2FFE7F6E704B080BD000097
:102E50008EB00D900C9100200A90099008900B9074
:102E6000FFE70B980F2800F2CC81FFE70B990120B8
:102E700088400A900C9800680A99084009900998BF
:102E80000A99884240F0B881FFE70C98406800F04A
:102E90000300012807D0FFE70C98406800F003000A
:102EA00002282FD1FFE70D98806808900B98410009
:102EB000032000FA01F10898884308900C98C06834
:102EC0000B99490000FA01F1089808430890089806
:102ED0000D9988600D98406808900B99012000FAC0
:102EE00001F10898884308900C984068C0F30010DE
:102EF0000B9900FA01F108980843089008980D9979
:102F00004860FFE70C98406800F00300032818D0E1
:102F1000FFE70D98C06808900B984100032000FA65
:102F200001F10898884308900C9880680B99490033
:102F300000FA01F108980843089008980D99C860B4
:102F4000FFE70C98406800F00300022826D1FFE755
:102F50000D980B996FF0030202EA51010844006AD0
:102F600008900B9800F0070081000F2000FA01F193
:102F70000898884308900C9800690B9901F00701A4
:102F8000890000FA01F108980843089008980D9903
:102F90000B9B02EA530211440862FFE70D98006898
:102FA00008900B984100032000FA01F1089888432B
:102FB00008900C98406800F003000B99490000FA53
:102FC00001F108980843089008980D9908600C983A
:102FD00080798007002800F00E81FFE7FFE70020DE
:102FE000079043F64400C4F20200016841F48041B6
:102FF0000160006800F4804007900798FFE70B9895
:1030000020F0030043F60801C4F201014058089083
:103010000B9800F0030081000F2000FA01F10898DE
:10302000884308900D980021C4F20201884203D120
:10303000FFE7002006905EE00D9840F20041C4F2E8
:103040000201884203D1FFE70120059050E00D986E
:1030500040F60001C4F20201884203D1FFE70220DA
:10306000049042E00D9840F60041C4F2020188420B
:1030700003D1FFE70320039034E00D9841F20001F3
:10308000C4F20201884203D1FFE70420029026E047
:103090000D9841F20041C4F20201884203D1FFE7DA
:1030A0000520019018E00D9841F60001C4F20201DC
:1030B000884203D1FFE7062000900AE00D9941F60F
:1030C0000042C4F202020820914208BF072000908B
:1030D000FFE700980190FFE701980290FFE7029850
:1030E0000390FFE703980490FFE704980590FFE73B
:1030F00005980690FFE70698C0B20B9901F003010E
:10310000890000FA01F108980843089008980B9983
:1031100021F0030143F60802C4F20102885043F68D
:103120000840C4F201000068089009990898884393
:1031300008900C988079C006002805D5FFE709990A
:10314000089808430890FFE7089843F60841C4F23E
:103150000101086043F60C40C4F2010000680890C9
:1031600009990898884308900C988079800600286F
:1031700005D5FFE70999089808430890FFE70898E4
:1031800043F60C41C4F20101086043F60440C4F266
:1031900001000068089009990898884308900C98E5
:1031A00080798007002805D5FFE70999089808432A
:1031B0000890FFE7089843F60441C4F20101086053
:1031C00043F60040C4F2010000680890099908988D
:1031D000884308900C988079C00728B1FFE70999C7
:1031E000089808430890FFE7089843F60041C4F2A6
:1031F00001010860FFE7FFE7FFE70B9801300B9044
:103200002FE60EB07047000082B00190ADF80210BA
:103210008DF801209DF8010028B1FFE7BDF80200FC
:103220000199886105E0BDF80200000401998861F8
:10323000FFE702B07047000045F29800C2F20000BC
:103240000068704740F20400C2F20000027845F2C4
:103250009801C2F20001086810440860704700003D
:1032600080B543F60041C4F20201086840F40070E2
:103270000860086840F480600860086840F4807066
:103280000860032000F0C6F80F2000F005F800F0F9
:1032900071F8002080BD000080B58CB00B9000203C
:1032A00005900490FFE70020019043F64400C4F22B
:1032B0000200016841F001010160006800F00100B6
:1032C00001900198FFE706A803A900F0DDF900F0DE
:1032D0001DFA4000059005984DF68361C4F21B313C
:1032E000A0FB01014FF0FF3000EB9140049040F64D
:1032F0008C50C2F200000021C4F20101016040F2D2
:10330000E731C16004994160002101618160816100
:1033100000F07CFE8DF80B009DF80B0028BBFFE74A
:1033200040F68C50C2F2000000F00AFF8DF80B004E
:103330009DF80B00C0B9FFE7192000F047F80B9883
:103340000F280CD8FFE70B991920002200F048F84D
:103350000B9840F20801C2F20001086003E001206E
:103360008DF80B00FFE7FFE7FFE79DF80B000CB0BF
:1033700080BD000080B582B0FFE70020019043F6D9
:103380004400C4F20200016841F480410160006819
:1033900000F4804001900198FFE7FFE700200090D3
:1033A00043F64000C4F20200016841F08051016020
:1033B000006800F0805000900098FFE76FF0010077
:1033C0000F21002200F00CF802B080BD80B582B061
:1033D0008DF807009DF9070003F020FE02B080BDC4
:1033E00080B586B08DF817000491039200200290FA
:1033F00003F02CFE02909DF91700019002980499A9
:10340000039A02F035F90146019803F027FE06B051
:1034100080BD000080B582B00190019803F062FE8B
:1034200002B080BD80B584B002900191029820B9AD
:10343000FFE701208DF80F0021E1019843F60041DC
:10344000C4F20201096801F00701884212D9FFE7BE
:10345000019943F60040C4F202000170006800F0D8
:1034600007000199884204D0FFE701208DF80F0082
:1034700005E1FFE702980078800700282AD5FFE7DA
:10348000029800784007002809D5FFE743F60801B5
:10349000C4F20201086840F4E0500860FFE70298B7
:1034A00000780007002809D5FFE743F60801C4F2B9
:1034B0000201086840F460400860FFE743F6080135
:1034C000C4F20201086820F0F000029A92681043EA
:1034D0000860FFE702980078C00700286ED0FFE779
:1034E00002984068012811D1FFE743F60000C4F2BA
:1034F0000200006800F400310020B0EB514F04D10D
:10350000FFE701208DF80F00B9E02CE00298406839
:10351000022805D0FFE702984068032811D1FFE791
:1035200043F60000C4F20200006800F000710020C1
:10353000B0EB516F04D1FFE701208DF80F009EE042
:1035400010E043F60000C4F20200006800F002013F
:103550000020B0EB510F04D1FFE701208DF80F00E0
:103560008DE0FFE7FFE743F60801C4F202010868B7
:1035700020F00300029A526810430860FFF75CFED7
:103580000090FFE743F60800C4F20200006800F074
:103590000C0002994968B0EB810F0ED0FFE7FFF7EE
:1035A0004BFE0099401A41F28931884204D3FFE76B
:1035B00003208DF80F0062E0E4E7FFE7019843F68F
:1035C0000041C4F20201096801F00701884212D2E9
:1035D000FFE7019943F60040C4F202000170006861
:1035E00000F007000199884204D0FFE701208DF820
:1035F0000F0044E0FFE702980078400700280CD550
:10360000FFE743F60801C4F20201086820F4E05025
:10361000029AD26810430860FFE70298007800071A
:1036200000280DD5FFE743F60801C4F2020108683F
:1036300020F46040029A126940EAC2000860FFE785
:1036400000F076F843F60801C4F202010968C9B235
:103650000A094AF63011C0F60001895CC84040F200
:103660000001C2F20001086040F20800C2F200004E
:103670000068FFF711FE00208DF80F00FFE79DF8AE
:103680000F0004B080BD000082B00190009101994C
:103690000F20086043F60800C4F20200016801F040
:1036A0000301019A5160016801F0F001019A9160F3
:1036B000016801F4E051019AD160006800F46040B3
:1036C000C0080199086143F60040C4F20200006896
:1036D00000F007000099086002B0704740F2000057
:1036E000C2F200000068704780B5FFF7F7FF43F6AD
:1036F0000801C4F202010968C1F382224AF64011AE
:10370000C0F60001895CC84080BD000080B5FFF7AD
:10371000E5FF43F60801C4F20201096889B24A0BC9
:103720004AF64011C0F60001895CC84080BD000027
:1037300080B586B00020059004900390029043F677
:103740000800C4F20200006800F00C00014601917C
:1037500040B1FFE7019804280AD0FFE70198082844
:103760000CD04FE042F20040C0F2F40002904FE073
:1037700047F64000C0F27D10029049E043F6040095
:10378000C4F20200016801F03F01059100684002A7
:10379000002813D5FFE743F60400C4F202000068D6
:1037A000C0F3881047F64001C0F27D11A0FB010173
:1037B000059A0023FCF758FD049012E043F604003C
:1037C000C4F202000068C0F3881042F20041C0F267
:1037D000F401A0FB0101059A0023FCF745FD0490CC
:1037E000FFE743F60400C4F20200006800F4403131
:1037F000022000EBD130039004980399B0FBF1F064
:10380000029005E042F20040C0F2F4000290FFE7AF
:10381000029806B080BD000080B586B00490049880
:1038200020B9FFE701208DF8170050E304980078D5
:10383000C007002800F0A580FFE743F60800C4F2A7
:103840000200006800F00C00042813D0FFE743F6E4
:103850000800C4F20200006800F00C0008281ED125
:10386000FFE743F60400C4F20200006840020028AB
:1038700015D5FFE743F60000C4F20200006800F42B
:1038800000310020B0EB514F08D0FFE704984068AA
:1038900020B9FFE701208DF8170018E370E0FFE77B
:1038A00004984068B0F5803F09D1FFE743F6000176
:1038B000C4F20201086840F48030086020E00498F7
:1038C0004068B0F5A02F0DD1FFE743F60001C4F228
:1038D0000201086840F480200860086840F48030E5
:1038E00008600CE043F60001C4F20201086820F40D
:1038F00080300860086820F480200860FFE7FFE758
:10390000FFE704984068E8B1FFE7FFF795FC0390F4
:10391000FFE743F60000C4F20200006800F4003143
:103920000020B0EB514F0CD1FFE7FFF785FC039966
:10393000401A652804D3FFE703208DF81700C6E27C
:10394000E7E71CE0FFF778FC0390FFE743F6000091
:10395000C4F20200006800F400310020B0EB514FC7
:103960000CD0FFE7FFF768FC0399401A652804D3E1
:10397000FFE703208DF81700A9E2E7E7FFE7FFE77D
:10398000FFE7049800788007002840F19680FFE761
:1039900043F60800C4F20200006810F00C0F13D0C8
:1039A000FFE743F60800C4F20200006800F00C00D4
:1039B00008282CD1FFE743F60400C4F20200006897
:1039C0004002002823D4FFE743F60000C4F20200BF
:1039D000006800F002010020B0EB510F09D0FFE7B2
:1039E0000498C068012804D0FFE701208DF8170073
:1039F0006DE243F60001C4F20201086820F0F8000D
:103A0000049A126940EAC2000860FFE754E0049893
:103A1000C06870B3FFE70021C4F2472101200860AD
:103A2000FFF70AFC0390FFE743F60000C4F2020030
:103A3000006800F002010020B0EB510F0CD1FFE74D
:103A4000FFF7FAFB0399401A032804D3FFE703208A
:103A50008DF817003BE2E7E743F60001C4F20201EC
:103A6000086820F0F800049A126940EAC200086071
:103A700021E00021C4F2472100200860FFF7DCFBB1
:103A80000390FFE743F60000C4F20200006800F074
:103A900002010020B0EB510F0CD0FFE7FFF7CCFB89
:103AA0000399401A032804D3FFE703208DF8170079
:103AB0000DE2E7E7FFE7FFE7FFE70498007800077C
:103AC00000284BD5FFE70498406918B3FFE740F69C
:103AD0008061C4F2472101200860FFF7ADFB03902D
:103AE000FFE743F67400C4F20200006800F0020130
:103AF0000020B0EB510F0CD1FFE7FFF79DFB0399BE
:103B0000401A032804D3FFE703208DF81700DEE1F5
:103B1000E7E722E040F68061C4F247210020086018
:103B2000FFF78AFB0390FFE743F67400C4F202003C
:103B3000006800F002010020B0EB510F0CD0FFE74D
:103B4000FFF77AFB0399401A032804D3FFE7032009
:103B50008DF81700BBE1E7E7FFE7FFE7049800787F
:103B60004007002840F1CE80FFE700208DF80700D5
:103B700043F64000C4F202000068C000002815D4DB
:103B8000FFE7FFE70020009043F64000C4F2020088
:103B9000016841F080510160006800F080500090A1
:103BA0000098FFE701208DF80700FFE747F20000CB
:103BB000C4F200000068C005002822D4FFE747F2E5
:103BC0000001C4F20001086840F480700860FFF74B
:103BD00033FB0390FFE747F20000C4F200000068E7
:103BE000C00500280CD4FFE7FFF726FB0399401A15
:103BF000032804D3FFE703208DF8170067E1EAE705
:103C0000FFE7FFE704988068012809D1FFE743F642
:103C10007001C4F20201086840F0010008601FE072
:103C20000498806805280DD1FFE743F67001C4F2BF
:103C30000201086840F004000860086840F00100D4
:103C400008600CE043F67001C4F20201086820F03D
:103C500001000860086820F004000860FFE7FFE743
:103C6000FFE704988068F8B1FFE7FFF7E5FA0390F3
:103C7000FFE743F67000C4F20200006800F00201A2
:103C80000020B0EB510F0ED1FFE7FFF7D5FA0399F3
:103C9000401A41F28931884204D3FFE703208DF8AE
:103CA000170014E1E5E71EE0FFF7C6FA0390FFE70F
:103CB00043F67000C4F20200006800F00201002028
:103CC000B0EB510F0ED0FFE7FFF7B6FA0399401A99
:103CD00041F28931884204D3FFE703208DF81700B1
:103CE000F5E0E5E7FFE79DF80700012809D1FFE7C8
:103CF00043F64001C4F20201086820F080500860D9
:103D0000FFE7FFE704988069002800F0DC80FFE708
:103D100043F60800C4F20200006800F00C00082816
:103D200000F08580FFE70498806902285CD1FFE7F6
:103D30006021C4F2472100200860FFF77DFA03905C
:103D4000FFE743F60000C4F20200006800F00071D3
:103D50000020B0EB516F0CD0FFE7FFF76DFA03992D
:103D6000401A032804D3FFE703208DF81700AEE0C4
:103D7000E7E70499C869D1F820C04B6A8A6A40EA2B
:103D80000C0040EA8310D2034FF6FF739A43A2F56A
:103D900080321043C96A40EA016043F60401C4F26C
:103DA000020108606021C4F2472101200860FFF78A
:103DB00043FA0390FFE743F60000C4F202000068F4
:103DC00000F000710020B0EB516F0CD1FFE7FFF75E
:103DD00033FA0399401A032804D3FFE703208DF830
:103DE000170074E0E7E721E06021C4F247210020DA
:103DF0000860FFF721FA0390FFE743F60000C4F2E2
:103E00000200006800F000710020B0EB516F0CD090
:103E1000FFE7FFF711FA0399401A032804D3FFE7DD
:103E200003208DF8170052E0E7E7FFE74AE0049827
:103E30008069012804D1FFE701208DF8170046E0D2
:103E400043F60400C4F202000068029004988069FE
:103E5000012831D0FFE7029800F480000499C96975
:103E6000884229D1FFE7029800F03F000499096ACF
:103E7000884221D1FFE7029847F6C07108400499B3
:103E8000496AB0EB811F17D1FFE7029800F4403078
:103E90000499896AC9034FF6FF729143A1F58031F5
:103EA000884209D1FFE7029800F070600499C96A5E
:103EB000B0EB016F04D0FFE701208DF8170006E09A
:103EC000FFE7FFE7FFE700208DF81700FFE79DF809
:103ED000170006B080BD000081B0009001B07047AF
:103EE00081B0009001B0704785B003900291FFE768
:103EF000039890F83C00012804D1FFE702208DF8D8
:103F000013007EE00399012081F83C00FFE7FFE702
:103F10000399022081F83D000398006840680190F1
:103F20000398006880680090019820F0700001906C
:103F30000298016801980843019001980399096863
:103F40004860039800680021C4F2010188423CD017
:103F5000FFE703980068B0F1804F36D0FFE7039881
:103F6000006840F20041C4F2000188422DD0FFE712
:103F70000398006840F60001C4F20001884224D092
:103F8000FFE70398006840F60041C4F20001884250
:103F90001BD0FFE70398006840F20041C4F2010122
:103FA000884212D0FFE70398006844F20001C4F28F
:103FB0000101884209D0FFE70398006841F600013B
:103FC000C4F2000188420ED1FFE7009820F0800083
:103FD0000090029841680098084300900098039967
:103FE00009688860FFE70399012081F83D00FFE739
:103FF0000399002081F83C00FFE700208DF81300B2
:10400000FFE79DF8130005B07047000080B582B04F
:104010000090009820B9FFE701208DF807003FE0ED
:10402000009890F83D0040B9FFE70099002081F822
:104030003C00009800F038F8FFE70099022081F872
:104040003D00009951F8040B01F026FD0099012074
:1040500081F84600FFE70099012081F83E000099B1
:1040600081F83F00009981F84000009981F84100F3
:10407000FFE7FFE70099012081F84200009981F8ED
:104080004300009981F84400009981F84500FFE75A
:104090000099012081F83D0000208DF80700FFE71E
:1040A0009DF8070002B080BD80B586B005900598E8
:1040B0000068B0F1804F1BD1FFE7FFE700200490BC
:1040C00043F64000C4F20200016841F001010160C2
:1040D000006800F0010004900498FFE71C200290A3
:1040E00005210022FFF77CF90298FFF76FF924E021
:1040F0000598006840F20041C4F2000188421BD1DB
:10410000FFE7FFE70020039043F64000C4F20200FF
:10411000016841F002010160006800F002000390B4
:104120000398FFE71D20019005210022FFF758F9B1
:104130000198FFF74BF9FFE7FFE706B080BD0000ED
:1041400083B00190019890F83D00012804D0FFE76A
:1041500001208DF80B006AE00199022081F83D00F2
:1041600001980168C86840F00100C86001980068C3
:104170000021C4F2010188423CD0FFE701980068A9
:10418000B0F1804F36D0FFE70198006840F200415F
:10419000C4F2000188422DD0FFE70198006840F684
:1041A0000001C4F20001884224D0FFE701980068B2
:1041B00040F60041C4F2000188421BD0FFE701989D
:1041C000006840F20041C4F20101884212D0FFE7CA
:1041D0000198006844F20001C4F20101884209D04C
:1041E000FFE70198006841F60001C4F2000188422F
:1041F00012D1FFE701980068806800F00700009086
:104200000098062807D0FFE701980168086840F089
:1042100001000860FFE706E001980168086840F0C7
:1042200001000860FFE700208DF80B00FFE79DF814
:104230000B0003B07047000080B586B00490039176
:1042400000208DF80B00FFE7049890F83C0001284F
:1042500004D1FFE702208DF81700ABE0049901209C
:1042600081F83C00FFE7FFE70499022081F83D0058
:104270000498006880680190019820F07700019010
:10428000019820F47F4001900198049909688860A2
:10429000039800680090002872D0FFE7009810286B
:1042A0006ED0FFE7009820286AD0FFE700983028FA
:1042B00066D0FFE70098402855D0FFE700985028C7
:1042C00037D0FFE70098602840D0FFE700987028BB
:1042D0000BD0FFE70098B0F5805F05D0FFE70098AE
:1042E000B0F5005F16D052E055E004980068039BDB
:1042F0005A689968DB6801F0A1FC0498006880683E
:104300000190019840F077000190019804990968A4
:10431000886040E004980068039B5A689968DB68ED
:1043200001F08CFC04980168886840F48040886043
:1043300031E004980068039A5168D26801F0E2FC09
:1043400004980068502101F093FC24E00498006870
:10435000039A5168D26801F0FDFC0498006860215E
:1043600001F086FC17E004980068039A5168D2684F
:1043700001F0C8FC04980068402101F079FC0AE0D3
:10438000049800680399096801F072FC03E00120B9
:104390008DF80B00FFE70499012081F83D00FFE74D
:1043A0000499002081F83C00FFE79DF80B008DF890
:1043B0001700FFE79DF8170006B080BD81B00090A0
:1043C00001B0704780B584B0039003980068C0685E
:1043D000029003980068006901909DF8040080072E
:1043E000002824D5FFE79DF80800800700281DD588
:1043F000FFE7039801686FF002000861039901204C
:104400000877039800688069800720B1FFE7039868
:10441000FFF7D4FF06E0039800F0E2F8039800F0FD
:10442000E3F8FFE7039900200877FFE7FFE79DF82F
:1044300004004007002825D5FFE79DF80800400745
:1044400000281ED5FFE7039801686FF0040008619B
:1044500003990220087703980068806910F4407F70
:1044600004D0FFE70398FFF7A9FF06E0039800F0E8
:10447000B7F8039800F0B8F8FFE703990020087731
:10448000FFE7FFE79DF804000007002824D5FFE7B9
:104490009DF80800000700281DD5FFE70398016874
:1044A0006FF00800086103990420087703980068FA
:1044B000C069800720B1FFE70398FFF77FFF06E0A0
:1044C000039800F08DF8039800F08EF8FFE7039949
:1044D00000200877FFE7FFE79DF80400C0060028EA
:1044E00025D5FFE79DF80800C00600281ED5FFE788
:1044F000039801686FF0100008610399082008779D
:1045000003980068C06910F4407F04D0FFE7039867
:10451000FFF754FF06E0039800F062F8039800F0FC
:1045200063F8FFE7039900200877FFE7FFE79DF8AE
:104530000400C00778B1FFE79DF80800C00748B144
:10454000FFE7039801686FF001000861039800F02D
:104550004FF8FFE7FFE79DF804000006002810D59C
:10456000FFE79DF808000006002809D5FFE703983B
:1045700001686FF0800008610398FFF7ADFCFFE76A
:10458000FFE79DF804004006002810D5FFE79DF8DE
:1045900008004006002809D5FFE7039801686FF07E
:1045A00040000861039800F037F8FFE7FFE79DF847
:1045B00004008006002810D5FFE79DF8080080065B
:1045C000002809D5FFE7039801686FF02000086113
:1045D0000398FFF785FCFFE7FFE704B080BD00000C
:1045E00081B0009001B0704781B0009001B0704779
:1045F00080B582B00190019800680021C4F20101E9
:10460000884203D1FFE7FEF71DFEFFE7019801F0A6
:1046100045FB02B080BD000081B0009001B0704742
:1046200080B586B004900391ADF80A20049890F804
:104630004200202848D1FFE7039820B1FFE7BDF8EA
:104640000A0020B9FFE701208DF8170040E0049927
:104650000120086304990020486304980399BDF879
:104660000A2001F04DFE8DF809000498006B012826
:1046700021D1FFE7FFE7002001900498006800685F
:10468000019004980068406801900198FFE7FFE7F7
:10469000FFE70498006850E8030F40F01000009016
:1046A000FFE700990498026842E803100028F0D15F
:1046B000FFE7FFE703E001208DF80900FFE79DF821
:1046C00009008DF8170003E002208DF81700FFE7BE
:1046D0009DF8170006B080BD80B582B00190ADF89E
:1046E00002100198006841F20001C4F20101884201
:1046F0000CD1FFE740F66460C2F2000041F28A414B
:10470000C2F200010122FFF78BFFFFE7019800686A
:1047100044F20041C4F2000188420CD1FFE740F6A8
:10472000AC60C2F2000041F28B41C2F200010522EE
:10473000FFF776FFFFE702B080BD000081B0009078
:1047400001B0704780B592B0119011980068006870
:10475000109011980068C0680F9011980068406927
:104760000E9000200D900C90109800F00F000D900E
:104770000D9888B9FFE79DF84000800600280AD50B
:10478000FFE79DF83C008006002804D5FFE711985C
:1047900001F064FC02E2FFE70D98002800F0C280FF
:1047A000FFE79DF83800C00738B9FFE7BDF83C00C7
:1047B00010F4907F00F0B680FFE79DF84000C0073E
:1047C00058B1FFE79DF83D00C00730B1FFE71199F0
:1047D000486C40F001004864FFE79DF84000400746
:1047E00000280BD5FFE79DF83800C00730B1FFE780
:1047F0001199486C40F002004864FFE79DF84000C2
:10480000800700280BD5FFE79DF83800C00730B1BE
:10481000FFE71199486C40F004004864FFE79DF8F9
:1048200040000007002811D5FFE79DF83C008006F6
:10483000002805D4FFE79DF83800C00730B1FFE736
:104840001199486C40F008004864FFE71198406CEB
:10485000002866D0FFE79DF84000800600280AD5B2
:10486000FFE79DF83C008006002804D5FFE711987B
:1048700001F0F4FBFFE7119800684069C0F3801075
:104880000C901198406C0007002804D4FFE70C98A6
:1048900000283ED0FFE7119801F066FB11980068F0
:1048A0004069400600282FD5FFE7FFE7FFE7119892
:1048B000006850E8050F20F040000B90FFE70B99CF
:1048C0001198026842E805100028F0D1FFE7FFE7E1
:1048D0001198C06B98B1FFE71198C16B45F6A950CC
:1048E000C0F6000008651198C06BFDF7C3FF28B142
:1048F000FFE71198C06B016D8847FFE703E011984F
:10490000FFF71CFFFFE703E01198FFF717FFFFE732
:1049100006E01198FFF712FF119900204864FFE7A5
:10492000FFE73BE11198006B012840F01781FFE79A
:104930009DF84000C006002840F11081FFE79DF877
:104940003C00C006002840F10981FFE7FFE7002096
:104950000A901198006800680A90119800684068F1
:104960000A900A98FFE711980068406940060028FD
:1049700040F19A80FFE71198C06B00684068ADF87D
:104980002600BDF82600002875D0FFE7BDF82600F8
:104990001199898D88426EDAFFE7BDF826001199DA
:1049A000C8851198C06BC069B0F5807F58D0FFE70B
:1049B000FFE7FFE71198006850E8030F20F48070CC
:1049C0000890FFE708991198026842E80310002850
:1049D000F0D1FFE7FFE7FFE7FFE71198006850E835
:1049E000050F20F001000790FFE707991198026872
:1049F00042E805100028F0D1FFE7FFE7FFE7FFE7F7
:104A00001198006850E8050F20F040000690FFE77D
:104A100006991198026842E805100028F0D1FFE7D6
:104A2000FFE71199202081F84200119900200863C6
:104A3000FFE7FFE71198006850E8030F20F010002F
:104A40000590FFE705991198026842E803100028D5
:104A5000F0D1FFE7FFE71198C06BFDF795FEFFE788
:104A60001199022048631198818DC28D891A89B2EB
:104A7000FFF732FE17E0BDF826001199898D8842B4
:104A800010D1FFE71198C06BC069B0F5807F08D1E5
:104A9000FFE71199022048631198818DFFF71CFEF2
:104AA000FFE7FFE7FFE779E01199888DC98D401A8C
:104AB000ADF812001198C08D00284ED0FFE7BDF868
:104AC0001200002849D0FFE7FFE7FFE711980068D0
:104AD00050E8030F20F490700390FFE703991198BA
:104AE000026842E803100028F0D1FFE7FFE7FFE784
:104AF000FFE71198006850E8050F20F001000290D0
:104B0000FFE702991198026842E805100028F0D1E9
:104B1000FFE7FFE71199202081F84200119900205A
:104B20000863FFE7FFE71198006850E8030F20F0E3
:104B300010000190FFE701991198026842E8031004
:104B40000028F0D1FFE7FFE7119902204863119890
:104B5000BDF81210FFF7C0FDFFE71FE09DF8400011
:104B6000000600280AD5FFE79DF83C000006002853
:104B700004D5FFE7119801F073FC0FE09DF84000A9
:104B8000400600280AD5FFE79DF83C0040060028B3
:104B900004D5FFE7119801F031FAFFE712B080BDAC
:104BA00080B582B00090009820B9FFE701208DF811
:104BB000070040E00098806908B1FFE700E0FFE7E8
:104BC000009890F8410040B9FFE70099002081F873
:104BD0004000009800F034F8FFE70099242081F8A5
:104BE000410000980168C86820F40050C86000982F
:104BF00001F0E8FA00980168086920F49040086123
:104C000000980168486920F02A004861009801680E
:104C1000C86840F40050C860009900204864009AB9
:104C2000202182F84110009A82F8421000994863CE
:104C30008DF80700FFE79DF8070002B080BD000077
:104C400080B59EB01D9000201C901B901A9019906A
:104C500018901D98006841F20001C4F201018842D9
:104C600040F0AC80FFE7FFE70020179043F64400D8
:104C7000C4F20200016841F010010160006800F018
:104C8000100017901798FFE7FFE70020169043F6F3
:104C90003000C4F20200016841F0010101600068C7
:104CA00000F0010016901698FFE74FF4007018907E
:104CB00002200C901990002012901A9003200D9061
:104CC0001B9007200E901C900020C4F202000F9051
:104CD00018A91091FEF7BCF8DDF830C00D9B0E9AB4
:104CE0000F9810994FF4806ECDF844E0CDF860E055
:104CF000CDF864C04FF0010CCDF868C01B931C9236
:104D0000FEF7A6F8119A129940F60C40C2F2000084
:104D1000139046F24043C4F2020303604FF0006375
:104D200043608160C160026141618161C161016272
:104D30004162FDF751FF18B1FFE7FCF7ADFDFFE75A
:104D4000FFE71D9840F60C41C2F20001C1631D98B7
:104D50008863FFE740F66C40C2F200000B9046F219
:104D6000B841C4F2020101604FF00061416040218E
:104D700081600021C1604FF4806202614161816104
:104D8000C16101624162FDF727FF18B1FFE7FCF73F
:104D900083FDFFE7FFE71D9840F66C41C2F200017A
:104DA00081631D988863FFE725200A900521002272
:104DB000FEF716FB0A98FEF709FBB3E01D980068A2
:104DC00044F20041C4F20001884240F0AA80FFE7AB
:104DD000FFE70020159043F64000C4F2020001688E
:104DE00041F400310160006800F40030159015981E
:104DF000FFE7FFE70020149043F63000C4F2020002
:104E0000016841F001010160006800F001001490A8
:104E10001498FFE7042018900220039019900020B6
:104E200008901A90032004901B90072005901C9076
:104E30000020C4F20200069018A90791FEF708F8B6
:104E4000DDF80CC0049B059A069807994FF0080EF0
:104E5000CDF860E0CDF864C04FF0010CCDF868C02B
:104E60001B931C92FDF7F4FF089940F6CC40C2F268
:104E70000000099046F28802C4F2020202604FF07C
:104E8000006242608160C1604FF4806202614161F2
:104E90008161C16101624162FDF79EFE18B1FFE7C9
:104EA000FCF7FAFCFFE7FFE71D9840F6CC41C2F2A1
:104EB0000001C1631D988863FFE740F62C50C2F2E1
:104EC0000000029046F2A001C4F2020101604FF01E
:104ED00000614160402181600021C1604FF4806227
:104EE000026141618161C16101624162FDF774FE4D
:104EF00018B1FFE7FCF7D0FCFFE7FFE71D9840F68D
:104F00002C51C2F2000181631D988863FFE72620BF
:104F1000019005210022FEF763FA0198FEF756FA88
:104F2000FFE7FFE71EB080BD80B584B0029001911D
:104F3000ADF80220029890F84200202817D1FFE730
:104F4000019820B1FFE7BDF8020020B9FFE701207A
:104F50008DF80F000FE00299002008630298019974
:104F6000BDF8022001F0CCF98DF80F0003E002201B
:104F70008DF80F00FFE79DF80F0004B080BD000022
:104F800080B582B001900198006841F20001C4F23E
:104F90000101884211D1FFE741F28A40C2F20000CC
:104FA00000900078FCF74AFB009940F66460C2F27A
:104FB00000000122FFF7B8FFFFE70198006844F204
:104FC0000041C4F2000188420CD1FFE740F6AC601A
:104FD000C2F2000041F28B41C2F200010522FFF74C
:104FE000A3FFFFE702B080BD81B0009001B0704721
:104FF00081B0009001B07047FFE7FEE781B08DED12
:10500000000A9DED000A01B07047000080B582B033
:105010000190FFE700F002F8FCE7000080B588B0DF
:105020000020C4F202000690102100910122039298
:10503000FEF7EAF8C820079002F0DAF8009906981F
:1050400000220592FEF7E0F8079802F0D1F8039AE3
:10505000069820210191FEF7D7F8079802F0C8F8CA
:105060000199059A0698FEF7CFF8079802F0C0F864
:10507000039A069840210291FEF7C6F8079802F0BD
:10508000B7F80299059A0698FEF7BEF8079802F05D
:10509000AFF8039A069880210491FEF7B5F80798B7
:1050A00002F0A6F80499059A0698FEF7ADF807985D
:1050B00002F09EF808B080BD80B58CB040F6BC30E0
:1050C000C2F20000019046F20041C4F2000101600A
:1050D0000321416000218160C1604FF40022026120
:1050E0004FF4401242610176012242768276C27606
:1050F00001774177FDF78EF818B1FFE7FCF7CCFB9D
:10510000FFE701210A910E200B90002007900990E3
:105110000891069044F22000029044F2400004906E
:1051200044F2600003904FF48140059040F6BC309B
:10513000C2F2000002A9FCF795FC18B1FFE7FCF7EA
:10514000ABFBFFE701210A910E200B900791002095
:10515000099008900691029004900390059040F603
:10516000BC30C2F2000002A9FCF77CFC18B1FFE7DA
:10517000FCF792FBFFE740F6BC30C2F20000FDF7FF
:10518000A1FA18B1FFE7FCF787FBFFE740F6BC3058
:10519000C2F200000221FCF78FFB18B1FFE7FCF719
:1051A0007BFBFFE740F6BC30C2F200001021FCF7A9
:1051B00083FB18B1FFE7FCF76FFBFFE70CB080BD86
:1051C00080B58CB040F6E430C2F20000019046F6A3
:1051D0000001C4F2000101600321416000218160EF
:1051E000C1604FF4002202614FF440124261017627
:1051F000012242768276C27601774177FDF70AF87E
:1052000018B1FFE7FCF748FBFFE701210A910E20E8
:105210000B900790002009900891069044F220001E
:10522000029044F24000049044F2600003904FF476
:105230008140059040F6E430C2F2000002A9FCF77C
:1052400011FC18B1FFE7FCF727FBFFE701210A91EA
:105250000E200B900F2007900020099008900691D7
:10526000029004900390059040F6E430C2F20000F2
:1052700002A9FCF7F7FB18B1FFE7FCF70DFBFFE70E
:1052800040F6E430C2F20000FDF71CFA18B1FFE767
:10529000FCF702FBFFE740F6E430C2F20000022117
:1052A000FCF70AFB18B1FFE7FCF7F6FAFFE740F658
:1052B000E430C2F200001021FCF7FEFA18B1FFE75B
:1052C000FCF7EAFAFFE70CB080BD000080B588B0BB
:1052D000FFE70020079043F63000C4F202000168A7
:1052E00041F480010160006800F480000790079895
:1052F000FFE7FFE70020069043F63000C4F202000B
:10530000016841F400110160006800F4001006908B
:105310000698FFE7102000900521039100220492D7
:10532000FEF75EF80098FEF751F80399049A1120F1
:105330000190FEF755F80198FEF748F80399049A92
:105340003A200290FEF74CF80298FEF73FF80399D6
:10535000049A46200590FEF743F80598FEF736F8C4
:1053600008B080BD80B582B045F20D00C0F60000E7
:105370004AF67412C0F600020021019101F0A0FF6C
:10538000019940F2AC62C2F20002106040F221507A
:10539000C0F600004AF64812C0F6000201F090FF85
:1053A000019940F27402C2F20002106045F6051045
:1053B000C0F600004AF69812C0F6000201F080FF25
:1053C000019940F2F072C2F20002106045F6151029
:1053D000C0F600004AF6BC12C0F6000201F070FFF1
:1053E00040F2F471C2F20001086002B080BD00001A
:1053F00080B58CB000200B900A900990089007901F
:10540000FFE70020069043F63000C4F20200016876
:1054100041F080010160006800F08000069006986D
:10542000FFE7FFE70020059043F63000C4F20200DA
:10543000016841F001010160006800F00100059081
:105440000598FFE7FFE70020049043F63000C4F220
:105450000200016841F002010160006800F00200F2
:1054600004900498FFE70020C4F2020003904FF478
:10547000F871019100220292FDF7C6FE019A02998D
:105480000398079201220892022209920A9107A921
:10549000FDF7DEFC0CB080BD80B588B00021019125
:1054A00007910691059104910391029140F6D45021
:1054B000C2F200004FF080420260532242608160DD
:1054C00040F2E732C26001618161FEF79FFD18B1D1
:1054D000FFE7FCF7E1F9FFE74FF48050049040F656
:1054E000D450C2F2000004A9FEF7A6FE18B1FFE7EF
:1054F000FCF7D2F9FFE700200290039040F6D45069
:10550000C2F2000002A9FEF7EFFC18B1FFE7FCF7BA
:10551000C3F9FFE740F6D450C2F20000FEF710FED8
:1055200018B1FFE7FCF7B8F9FFE708B080BD00004D
:1055300080B588B0002101910791069105910491F1
:105540000391029140F61C60C2F2000040F200425A
:10555000C4F20002026053224260816040F2E732EE
:10556000C26001618161FEF751FD18B1FFE7FCF7F0
:1055700093F9FFE74FF48050049040F61C60C2F2AC
:10558000000004A9FEF758FE18B1FFE7FCF784F904
:10559000FFE700200290039040F61C60C2F200007A
:1055A00002A9FEF7A1FC18B1FFE7FCF775F9FFE7C8
:1055B00040F61C60C2F20000FEF7C2FD18B1FFE722
:1055C000FCF76AF9FFE708B080BD000080B582B043
:1055D00040F66460C2F20000019041F20001C4F2A2
:1055E000010101604FF4E131416000218160C1603F
:1055F00001610C2242618161C161FFF7D1FA18B1EA
:10560000FFE7FCF749F9FFE702B080BD80B582B043
:1056100040F6AC60C2F20000019044F20041C4F2D6
:10562000000101604FF4E131416000218160C160FF
:1056300001610C2242618161C161FFF7B1FA18B1C9
:10564000FFE7FCF729F9FFE702B080BDFFE7FEE7BF
:1056500081B08DED000A9DED000A9FED031A20EE4A
:10566000010A01B0704700BF0000B443FFE7FEE746
:1056700088B0079006910592079800F00700049003
:105680000498C0F10700052803D3FFE70420019028
:1056900004E00498C0F107000190FFE7019803902F
:1056A00004980430062803D8FFE70020009003E0A8
:1056B000049803380090FFE7009802900698039939
:1056C000012202FA01F101390840029B9840059934
:1056D0009A40013A1140084308B0704782B00190E7
:1056E000019890ED030A019890ED041A30EE410AFA
:1056F000019880ED050A019890F824000146009178
:10570000D0B3FFE7009801286DD1FFE7019890ED35
:10571000000A90ED051A019890ED062A31EE422A12
:10572000019890ED011A90ED053A21EE031A20EE52
:10573000020A30EE011A019890ED020A90ED052A56
:10574000019890ED063A33EE033A32EE432A01987F
:1057500090ED073A32EE032A20EE020A30EE010AFB
:10576000019880ED080A019880690199C861019843
:1057700040690199886137E0019890ED050A019828
:1057800090ED071AB6EE002A21EE021A20EE020A68
:1057900030EE010A019880ED070A019890ED000AA9
:1057A00090ED052A019890ED011A90ED073A21EE4F
:1057B000031A20EE020A30EE011A019890ED020A57
:1057C00090ED052A019890ED063A32EE432A20EE3C
:1057D000020A30EE010A019880ED080A019840693A
:1057E0000199886100E0FFE7019890ED080A02B096
:1057F0007047000080B586B002AA00920246009869
:10580000059280ED020AC0ED010A80ED001A8DF8C4
:105810000710049805990860039805994860029854
:10582000059988609DF80700059981F8240005987E
:1058300000F002F806B080BD81B000900099002011
:10584000C8600099086100994861009988610099D1
:10585000C8610099086201B07047000000000000B4
:10586000EFF30980BFF36F8F154B1A681EF0100F0E
:1058700008BF20ED108A20E9F04F10602DE90900E3
:105880004FF0500080F31188BFF34F8FBFF36F8F3D
:1058900003F06AFD4FF0000080F31188BDE80900B5
:1058A00019680868B0E8F04F1EF0100F08BFB0ECA0
:1058B000108A80F30988BFF36F8F704700BF00BF65
:1058C000E80F0020000000000000000000000000C1
:1058D000074B19680868B0E8F04F80F30988BFF3F8
:1058E0006F8F4FF0000080F31188704700BF00BF3A
:1058F000E80F002080B56FF00400002101F0D0FB1C
:1059000080BD000080B582B00190FFE7012001F06A
:105910006FFCFBE780B584B0039004F01DFB0290A0
:1059200005200190FFE741F28841C2F200010878AA
:10593000497888420FD0FFE740F2A060C2F2000031
:105940000078C00738B1FFE741F28841C2F2000198
:1059500048780870FFE741F28840C2F200000088F2
:10596000ADF80000009802F033FF02A8052103F013
:1059700093FBD8E780B54EF21000CEF2000000682D
:1059800004F0CEFA012803D0FFE703F0FDFDFFE7A6
:1059900080BD000080B594B008A83021FAF729FD39
:1059A000002007900690059004900390FFE70020E8
:1059B000029043F64000C4F20200016841F08051B9
:1059C0000160006800F0805002900298FFE7FFE756
:1059D0000020019047F20000C4F20000016841F489
:1059E00080410160006800F4804001900198FFE769
:1059F000012008904FF48030099002200E904FF45F
:105A000080010F91192110914FF4A87111911290FA
:105A10000420139008A8FDF7FFFE18B1FFE7FBF77D
:105A20003BFFFFE70F200390022004900020059029
:105A30004FF4A05006904FF48050079003A8052122
:105A4000FDF7F0FC18B1FFE7FBF726FFFFE714B006
:105A500080BD00004EF68851CEF20001086840F487
:105A6000700008607047000080B540F68C50C2F2AC
:105A70000000FEF7A7FC80BD80B540F6D450C2F20E
:105A80000000FEF79FFC80BD80B540F61C60C2F2AE
:105A90000000FEF797FC80BD83B002900191029850
:105AA0000068009002980021C4F20101884225D0CC
:105AB000FFE70298B0F1804F20D0FFE7029840F254
:105AC0000041C4F20001884218D0FFE7029840F676
:105AD0000001C4F20001884210D0FFE7029840F6AE
